S01800006275696C642F6D6963617A2F6D61696E2E73726563E5
S11300000C9449000C9443050C944D050C9457052D
S11300100C9461050C946B050C9475050C94F10615
S11300200C947F050C9468000C9468000C944116A1
S11300300C94DF170C940D050C9423050C9489057E
S11300400C94FC040C94B30D0C9468000C9468009C
S11300500C9468000C9468000C9468000C9468007C
S11300600C9418050C9468000C9468000C946800B7
S11300700C9468000C9468000C9468000C9468005C
S11300800C9468000C9468000C94680000081C1818
S1130090141011241FBECFEFD0E1DEBFCDBF11E09D
S11300A0A0E0B1E0E8E3F5E300E00BBF02C0079095
S11300B00D92A833B107D9F712E0A8E3B1E001C06B
S11300C01D92AA3BB107E1F70E9459140C949B1AA4
S11300D00C9400008FB7F894992708958FBF089562
S11300E02F923F924F925F926F927F928F929F9244
S11300F0AF92BF92CF92DF92EF92FF920F931F9332
S1130100CF93DF93CDB7DEB729970FB6F894DEBF50
S11301100FBECDBF6FB76983F894209091013090E2
S1130120920140909301509094016624772488248E
S11301302EE4A22E93E8B92ECC24DD24EE24FF2451
S113014000E010E0222D332D442D552D662D772D02
S1130150882D90E00E946D182A833B834C835D8335
S11301606E837F8388879987822E932EA42EB52E43
S11301702401350100E20E946B19A22EB32EC42E75
S1130180D52EA301920156954795379527952A0DAB
S11301903B1D4C1D5D1D57FF05C05F772F5F3F4F13
S11301A04F4F5F4F209391013093920140939301FD
S11301B050939401E9818E2F99278FBFCA01B90109
S11301C029960FB6F894DEBF0FBECDBFDF91CF9155
S11301D01F910F91FF90EF90DF90CF90BF90AF9061
S11301E09F908F907F906F905F904F903F902F9053
S11301F00895FC0182819927582F442781819927EA
S1130200482B592BCA01892F992786958695837087
S113021090708230910559F08330910559F0892B03
S113022019F420E030E008C02CE93FEF05C022E0DB
S113023030E002C028E030E0CA0184E0989F812DBC
S1130240992711248230910559F08330910559F092
S1130250892B19F480E090E008C08CE99FEF05C079
S113026082E090E002C088E090E0280F391F2A5F06
S11302703F4FCF01820F931F0895282F9FB7F89403
S1130280662349F0E82FFF27ED50FE4F8081882335
S113029011F021E006C0E22FFF27ED50FE4F6083EE
S11302A020E0892F99278FBF822F99270895E82F5F
S11302B08FB7F894282F332790E0FF27ED50FE4F97
S11302C08081861709F491E02FBF892F992708951B
S11302D0882311F06E9A08956E980895882311F07A
S11302E06F9A08956F98089580E00E946801BA9A01
S11302F0BB98B99AB89A6C9A80E00E946E016B9888
S11303006A9881E00E946801709A8DB18C7F8DB9E2
S11303100895282F9FB7F894E82FFF27E159FE4F3F
S113032080818F3F81F4E091B802E21771F40BC031
S11303302093620204C0FF27E159FE4F20832093DB
S1130340B80220E007C025E005C0809162028F3F1B
S113035091F7EECF892F99278FBF822F9927089580
S11303600F931F93182F0FB7F89461E080E00E9459
S11303703D01882371F510932C0180912F0188236E
S1130380A9F580914601823089F588E00CC00E946D
S1130390740180914601882349F481E080934601E9
S11303A0109286018AE00E9489012AC080919C01F2
S11303B08F3F31F5E0912E01EE2311F11CC0109214
S11303C02D0104C0FF27E456FE4F108210922E0127
S11303D017C081E090E002C0880F991F1A95E2F7D8
S11303E020914501282B209345010AC080914601A4
S11303F08823E1F6CCCF80912D018F3F19F7DFCF11
S1130400802F99278FBF80E090E01F910F9108956E
S11304101F93182F81E00E9468011FB9779BFECFBC
S11304208FB199271F9108958F929F92AF92BF9297
S1130430CF92DF92EF92FF920F931F93CF93DF93AC
S11304408FB7F8949927C090B302D090B4028090EB
S1130450D8019090D901C091AE01D091AF01209103
S11304604F0130915001EAE0AE2EB12CAC0EBD1E0E
S11304702A153B0508F459018FBF7401EC0EFD1ECB
S113048086010C0F1D1F14C0C114D10419F0F8010A
S1130490808101C080E00E9408028114910411F05F
S11304A0F701808321960894E11CF11C0F5F1F4F14
S11304B0C5010197C817D90738F381E00E946E017E
S11304C09FB7F894C114D10431F0CC0EDD1EF601AF
S11304D080818FB901C01FB8D093AF01C093AE0122
S11304E0892F99278FBF80E090E0DF91CF911F91F2
S11304F00F91FF90EF90DF90CF90BF90AF909F90BF
S11305008F9008952FB7F894332750935001409358
S11305104F019093B4028093B3027093D901609316
S1130520D8011092AF011092AE012FBF452B29F0D4
S11305308FB10E9414029927089589E00E948901CD
S113054080E090E008958FB7F89499271092F50110
S11305508FBF0895EF920F931F93AE2D99E0899F5B
S1130560F0011124EC54FE4F408351836283738362
S11305700483158326833783A17080858E7F8A2B1D
S11305808260808781E00E9489011F910F91EF9022
S113059008957FB7F89462B72091520130915301C6
S11305A0409154015091550106B601FE0FC081B728
S11305B092B7280F311D411D511D2F5F3F4F4F4FE3
S11305C05F4F290F311D411D511D04C0260F311DE0
S11305D0411D511D872F99278FBFCA01B901089565
S11305E0AF92BF92CF92DF92EF92FF920F931F933D
S11305F0F82E5A016B010E94C902AB01BC01EE2422
S1130600960185018F2D0E94AA021F910F91FF90E0
S1130610EF90DF90CF90BF90AF90089580E88093E3
S11306206D01109289011092990210926102109248
S1130630850108951F93CF93DF93182F8FB7F894F4
S1130640C82FDD2760E080E00E945701882321F055
S1130650CFBF80E090E005C0CFBF812F0E94080289
S11306609927DF91CF911F910895CF93DF93FC01D8
S113067015A6DC019E96ED011B821A82198280E880
S113068086A7DF91CF9108958FB7F8946091B20156
S11306907091B3012CB53DB506B602FE04C06F5F80
S11306A07F4F2CB53DB599278FBF88279927CB015C
S11306B07727662744275527622B732B842B952B8A
S11306C00895EF92FF920F931F930E9444037B01BE
S11306D08C0120919D0130919E0140919F01509188
S11306E0A0018091980190919901A0919A01B091F3
S11306F09B01820F931FA41FB51FE216F306040784
S1130700150730F082179307A407B50758F005C002
S113071082179307A407B507E0F5E816F9060A0758
S11307201B07B8F59C01AD012E193F09400B510B75
S1130730213060E8360760E0460760E0560768F15C
S113074080E090E8A0E0B0E0E80EF91E0A1F1B1F4D
S1130750E0929D01F0929E0100939F011093A001ED
S113076080E090E8AFEFBFEFE80EF91E0A1F1B1FF1
S113077020503048404050402093980130939901D4
S113078040939A0150939B0120E030E840E050E010
S113079014C020E030E040E050E080939D0190934D
S11307A09E01A0939F01B093A00110929801109212
S11307B0990110929A0110929B01A901B7012CB5DD
S11307C03DB5C9018E199F0903968417950720F03A
S11307D0B9016D5F7F4F02C0640F751F611571050C
S11307E011F461E070E0615070407BBD6ABD80E14E
S11307F086BF87B7806187BF1F910F91FF90EF90ED
S113080008950F931F930FB7F894112760939D01D8
S113081070939E0180939F019093A001209398016F
S11308203093990140939A0150939B010E94610374
S11308300FBF1F910F91089597B79F7D97BF90E2C7
S113084096BF882319F08EB5806402C08EB58F7B65
S11308508EBD87B7806287BF80E090E00895DF9205
S1130860EF92FF920F931F938FB7F894282F33279B
S1130870D22E91B782B746B7981711F041FF02C044
S11308802FBF6AC08091AD018823E1F10E94C902A3
S1130890E090EF01F090F0010091F1011091F2016C
S11308A02091690130916A0140916B0150916C0172
S11308B06E197F09800B910B6217730784079507E4
S11308C020F01092AD0171E01EC02E0D3F1D401F9F
S11308D0511F8091520190915301A0915401B09104
S11308E05501281B390B4A0B5B0B273E310541058B
S11308F0510540F4822F223010F070E005C070E002
S113090082E002C070E086EE682F615000B601FC00
S1130910FDCF82B7681709F46F5F209152013091BF
S113092053014091540150915501DA01C9010196D6
S1130930A11DB11D860F911DA11DB11D8217930725
S1130940A407B50710F4622F609561BFDFBE77235B
S113095019F080E00E9489011F910F91FF90EF90A0
S1130960DF900895AFB7F894BB27E1E0E093AD01C1
S11309706093EF017093F0018093F1019093F20181
S11309802093690130936A0140936B0150936C0189
S1130990AFBF0E942F040895AF92BF92CF92DF920F
S11309A0EF92FF920F931F93CF93DF93CDB7DEB7F0
S11309B028970FB6F894DEBF0FBECDBF20E070E0DD
S11309C0E0912A01F0912B0132E14DE65CE46FE401
S11309D080912B019E2F28960FB6F894DEBF0FBE90
S11309E0CDBFDF91CF911F910F91FF90EF90DF90DA
S11309F0CF90BF90AF9008951F920F920FB60F92B1
S1130A0011248F9383B783BF00B600FCFDCF8F9171
S1130A100F900FBE0F901F90189578941F920F920D
S1130A200FB60F9211240F900FBE0F901F901895C0
S1130A3078941F920F920FB60F9211240F900FBE4D
S1130A400F901F90189578941F920F920FB60F92E3
S1130A5011242F933F938F939F932FB7F8943327A9
S1130A608091B2019091B30101969093B301809368
S1130A70B2012FBF9F918F913F912F910F900FBE85
S1130A800F901F9018951F920F920FB60F9211247A
S1130A900F900FBE0F901F9018951F920F920FB6D4
S1130AA00F9211240F900FBE0F901F9018951F9254
S1130AB00F920FB60F9211240F900FBE0F901F903C
S1130AC018951F920F920FB60F9211240F900FBE1C
S1130AD00F901F9018951F920F920FB60F9211242A
S1130AE00F900FBE0F901F9018951F920F920FB684
S1130AF00F9211240F900FBE0F901F9018951F9204
S1130B000F920FB60F9211240F900FBE0F901F90EB
S1130B1018951F920F920FB60F9211242F933F93A3
S1130B204F935F936F937F938F939F93AF93BF93F1
S1130B30EF93FF9383B783BF00B600FCFDCF81B76B
S1130B4099270196AA27BB2720915201309153017E
S1130B504091540150915501280F391F4A1F5B1FC2
S1130B602093520130935301409354015093550103
S1130B7078940E942F04FF91EF91BF91AF919F91C0
S1130B808F917F916F915F914F913F912F910F9032
S1130B900FBE0F901F9018950F931F93CF93DF9361
S1130BA0182F8FB7F894C82FDD270C2F61E080E051
S1130BB00E943D01882321F0CFBF85E090E024C04E
S1130BC080912F018823A1F480914601823081F421
S1130BD009C082E08093460110922F010E947401A3
S1130BE0B89AC09810932C0180E00FBF99270CC0CD
S1130BF080914601882369F38FB7F894992710925E
S1130C00F3018FBF81E0F1CFDF91CF911F910F915D
S1130C1008951F9383E00E94CC059927182F8823F9
S1130C2019F083E00E94B001812F99271F91089544
S1130C30EF920F931F9385569240E1F56623D1F509
S1130C4010923801A0912A01B0912B01FD01E75CBB
S1130C50FE4F8081882331F180919102882311F124
S1130C608091BC018D7F8093BC01FD01E35CFE4F4C
S1130C7081E08083A0FF0EC00E94C902AB01BC01C9
S1130C80A1E0EA2E00E61AEE20E030E082E00E94C5
S1130C90AA0210C040E157E260E070E081E00E94E7
S1130CA0F00208C0A35CBE4F8C91882319F08FE03A
S1130CB00E9489011F910F91EF90089561E081E0F6
S1130CC00E943D018823E9F48FB7F894282F332735
S1130CD08091420190914301892B11F02FBF20C0D4
S1130CE081E090E090934301809342012FBFDD9A0D
S1130CF00E94440324E130E040E050E00E940104FB
S1130D000FC062E081E00E945701882319F089E056
S1130D1090E0089561E081E00E945701882319F072
S1130D2080E090E0089585E090E00895EF92FF92CE
S1130D300F931F93CF93DF93182F7B01042F8FB74B
S1130D40F894C82FDD2760E080E00E9457018823D3
S1130D5021F0CFBF80E090E014C0CFBF1064812F9A
S1130D6099279093A6018093A5010E940802182F49
S1130D70402F5527B70180E090E00E948202812F26
S1130D809927DF91CF911F910F91FF90EF900895D4
S1130D90C09860914D0170914E0141E08FE30E9433
S1130DA09606089582E090E09093800180937F01FD
S1130DB081E08093890120E030E080912C0184302F
S1130DC011F421E030E0232B29F484E00E94CC05C7
S1130DD0882319F40E94C806089584E00E94B00193
S1130DE008951F920F920FB60F9211242F933F93E1
S1130DF04F935F936F937F938F939F93AF93BF931F
S1130E00EF93FF9380917F0190918001019749F4C2
S1130E1082E090E09093800180937F010E94D2064B
S1130E2005C0809185018F5F80938501FF91EF91CB
S1130E30BF91AF919F918F917F916F915F914F91EE
S1130E403F912F910F900FBE0F901F9018951F93F5
S1130E5080914501882309F04BC010912C011F3F5C
S1130E6009F046C060E00E945701882309F440C09D
S1130E7081E08093020280916E018823E1F1109257
S1130E80020285E090E045C0923069F5C09A8091F5
S1130E902D0120E030E08F3F11F421E030E0232BDE
S1130EA0E9F410932F018F3F19F42FEF30E00DC0B8
S1130EB0282F3327F901E456FE4F808180932D01BA
S1130EC08F3F11F410932E0110832093860181E04B
S1130ED0809346018AE00E94890105C010932F0186
S1130EE01092460111C080914601882369F00FC019
S1130EF081E090E00EC080912F01909146018823FB
S1130F0019F2923021F0EFCF80E00E94680180E076
S1130F1090E01F9108951F93CF93DF939FB7F894A8
S1130F20C92FDD271C2F90912C01981721F0CFBFDA
S1130F3081E090E03AC08FEF80932C01309145011D
S1130F403323F1F48FB7F89499271092F3018FBFEC
S1130F500E942707CFBF11C020932C0181E090E0AD
S1130F6002C0880F991F4A95E2F780953823309381
S1130F70450188E00E9489011FBF80E090E015C010
S1130F8080E065E0E32FFF270E94EE19292F492F07
S1130F905527CF01042E02C0959587950A94E2F750
S1130FA080FDDACF822F8F5FEFCFDF91CF911F913A
S1130FB008951F93CF93DF938FB7F894C82FDD273D
S1130FC01C2F80917F0190918001892B29F484E06A
S1130FD00E948B07CFBF1EC01092890180918501AA
S1130FE0882311F0B79904C00E9908C0882319F01A
S1130FF08150809385010E94D2060BC081E090E06D
S11310009093800180937F011092850184E00E9477
S11310108B071FBFDF91CF911F9108950E940E038C
S1131020C09AC09888E00E941A0388E00E941A03BC
S1131030C09A84E00E948B070E94D9070895FF920A
S11310400F931F93CF93DF93F82E8B018FB7F894F0
S1131050C82FDD2760E080E00E945701882321F03B
S1131060CFBF80E090E00CC0CFBF8F2D0E9408025C
S1131070812F99270E940802802F0E940802992735
S1131080DF91CF911F910F91FF9008951F931FB788
S1131090F89480918401882319F460E070E009C019
S11310A060E08091B202882309F461E081E068275E
S11310B0772780918C01882319F480E090E00AC09E
S11310C090E08091F801882309F491E081E0982769
S11310D0892F9927762F6627770F770F770F24E0CC
S11310E0880F991F2A95E1F7826E9262682B792BFB
S11310F081E10E941F08812F99278FBF1F910895B6
S11311008FB7F8949927609101028FBF85E0689F9B
S1131110B0011124625D7E4F706488E10E941F0853
S11311200895EF92FF921F93CF93DF93E0908D0188
S1131130F0908E01F70182A59927182F882309F4CE
S11311401FE1C09880918301811749F0612F7727AF
S11311506F717070606E706885E10E941F08109353
S11311608301F70110818FB7F894C82FDD2760E061
S113117080E00E945701882311F0CFBF12C0CFBF77
S11311808EE390E09093A6018093A5018EE30E94E4
S113119008021150412F552760E070E0C7010E94FA
S11311A08202DF91CF911F91FF90EF9008950F93EA
S11311B01F93CF93DF93EC010FB7F89411270E948C
S11311C0F900FC018FE380830FBF10929C02109200
S11311D09B0261E082E00E943D01882319F085E0D2
S11311E090E072C0809103028F5F8093030281506C
S11311F08B838FB7F894082F112762E081E00E9457
S11312005701882329F40FBF0E94A30281E05BC029
S11312108FB7F894992724E02093F4018FBFD093DB
S1131220AC01C093AB010FBFFE01319681812981CE
S11312309927982F88273327822B932B80729C7CA5
S11312408983892F992781832981982F8827332798
S11312502164822B932B8983892F992781831CA650
S113126018A619A619AA18AA1FA680E88EA761E0D5
S11312706093F7014091AB015091AC018FB7F894A2
S1131280282F332780914701909148018830910598
S113129011F0019711F02FBF15C082E090E09093F8
S11312A04801809347016093B90250938E014093A3
S11312B08D01109251012FBF0E940906882311F459
S11312C00E94910880E09927DF91CF911F910F919F
S11312D00895CF93DF93DA01422F2D3118F082E085
S11312E090E05EC0ED018B876E83872F99278F83F3
S11312F02FB7F894332780918A0190918B012FBFE7
S1131300FD018483892F992785832FB7F894332788
S113131080913001909131012FBF8887892F9927BF
S113132089873196818129819927982F88273327A6
S113133020643868822B932B8983892F9927818392
S1131340435F4C934D5080913301882359F01092A0
S11313503301642FCD010E94D7089927282F8823B1
S1131360A9F417C0842F99279093AA018093A90107
S1131370B0934C01A0934B018CE00E9489018091B1
S11313803301882349F489E090E00AC08FEF809309
S11313903301822F992704C01092950180E090E0D8
S11313A0DF91CF9108950F931F93CF93DF93182F5D
S11313B0EB01042FE82FFF27EE0FFF1FE055FE4F30
S11313C01182108210923601E091B001F091B101C6
S11313D0309721F080919A0280FF0EC081E08093C3
S11313E0360103C08EE00E9489011123B9F4602FF5
S11313F0CE010E94180612C020812D503327678128
S11314007727762F662786819927682B792BAF015A
S113141083850E946909882341F3E4CFDF91CF914A
S11314201F910F9108959B0180913601882349F4FF
S11314306091B0017091B1016217730711F40E94B9
S1131440D3090895CF93DF93FB01DB0116968683BE
S1131450892F9927ED01898386E083878091B001E4
S11314609091B101892B19F085E090E02BC0709325
S1131470B1016093B001435F40834D5080913601C8
S1131480882319F480E090E01DC08385ED01698113
S11314907727762F662726813327622B732B1092AA
S11314A03601242FAF010E9469099927282F882328
S11314B039F081E0809336011092B1011092B001AD
S11314C0822F9927DF91CF910895AF92BF92CF9247
S11314D0DF92EF92FF920F931F93CF93DF935B0101
S11314E06C01C0E0D0E0E4EBF1E0608561FF6CC02A
S11314F02081318142815381E480F5800681178106
S1131500D601C501821B930BA40BB50B8E159F0549
S1131510A007B10708F458C060FF03C06D7F60875F
S113152008C02E0D3F1D401F511F2083318342836D
S11315305383CC2321F0C13009F04CC041C08091C9
S11315403801882309F046C081E08093720210922A
S1131550710280912A0190912B0180FF0AC0A3E7B8
S1131560B2E0EAEDF1E084E101900D92815051F096
S1131570FBCFA3E7B2E0EEE9F2E084E101900D9243
S11315808150E1F7209167023327322F222780917F
S1131590660299278062282B392B20936602232F19
S11315A03327209367024BE165E672E08FEF9FEFEC
S11315B00E94220A882371F481E0809338010AC0D2
S11315C08FE00E94890106C021963996C430D10566
S11315D009F08BCF81E00E948901DF91CF911F91A7
S11315E00F91FF90EF90DF90CF90BF90AF90089550
S11315F0CF92DF92EF92FF920F931F93CF93DF93DB
S11316008C01F62E6A01E22E8FB7F894C82FDD27DD
S113161060E080E00E945701882321F0CFBF80E082
S113162090E01EC0CFBF0F0D111D802F80680E9457
S11316300802F82E16950795802F807C0E940802D8
S11316400E2D0AC0EE2DFF27E01BF109EC0DFD1D48
S113165080810E94080201500023A1F78F2D992751
S1131660DF91CF911F910F91FF90EF90DF90CF907A
S11316700895CF93DF93CDB7DEB72C970FB6F894C8
S1131680DEBF0FBECDBF8FB7F894282FAE014F5FDA
S11316905F4FDA01E9EFF1E088E001900D928150AB
S11316A0E1F780918A0190918B018987892F99278D
S11316B08A878091A1019091A2018B87892F992714
S11316C08C872FBF2CE060E080E691E00E94F80A4E
S11316D02C960FB6F894DEBF0FBECDBFDF91CF912D
S11316E008951F93182F81E090E090934801809310
S11316F0470110926E010E9427078FB7F89499272B
S1131700109341018FBF84E00E9489011F910895C5
S1131710CF92DF92EF92FF920F931F93CFB6F8947C
S1131720DD240E947000DC01CB0166E470E00E94BD
S1131730FA19FBE0EF2EF12CE80EF91EF092B60236
S1131740E092B5020E94440300271127A8019701E3
S11317500E940104CFBE1F910F91FF90EF90DF9084
S1131760CF9008951F93CF93DF938FB7F894C82F2A
S1131770DD271C2F80914701909148010897C9F4F7
S113178089E00E941A0383E00E948B07C09A81E0DB
S113179090E090934801809347018FB7F89499277C
S11317A023E0209341018FBF84E00E948901CFBFD1
S11317B030C0C0988091B902882311F085E001C03F
S11317C084E00E941A0383FD09C080E00E941A038A
S11317D083FF04C085E090E020E003C083E090E054
S11317E021E09093480180934701C09A1FBF2223B0
S11317F041F01092510183E00E948B070E94880BF4
S113180008C00E94440320E431E040E050E00E941C
S11318100104DF91CF911F910895EF92FF920F93EE
S11318201F93CF93DF938B018091A5019091A60123
S113183086FF40C18F7B8F3309F08EC1C0914D016B
S1131840D0914E0158815093810180917F019091F4
S113185080018530910509F443C08630910509F46F
S11318608AC0029709F01FC185E090E0909380013F
S113187080937F0140916D01852F99270196242F34
S11318803327281739074CF1B79906C00E9904C0BD
S1131890451B415040936D01409181014A32E8F467
S11318A04423A1F0BE016F5F7F4F483018F047E03A
S11318B050E007C086E090E09093800180937F0120
S11318C0552780E090E00E94820246C1109289016F
S11318D0C09A84E00E948B07E3C00E940E083CC1BA
S11318E086E090E09093800180937F0180918C0149
S11318F0882309F439C08091F8018823A9F58981E6
S113190085FF32C08F814E812FB7F89433276091C1
S1131910A1017091A2012FBF9927982F88275527DD
S1131920842B952B8617970759F08F812E81992741
S1131930982F88273327822B932B8F5F9F4FA1F4F7
S113194089818770813081F4C09AC0988AE00E94AE
S11319501A03C09AC0984091810147502896BE014D
S11319608FE30E949606F8C04091810147505527A5
S11319702896BE01A6CFC09A80918501882339F4A8
S113198084E00E948B0780918501882311F0B79928
S11319900AC00E9B08C090916102992321F08091A6
S11319A081018B3038F480914D0190914E010E9459
S11319B035033DC0913001F5E0919902FF27EE0F08
S11319C0FF1FEE0FFF1FE35FFD4F20813181428136
S11319D05381E0914D01F0914E0121ABBB27A52F1E
S11319E0942F832F80ABCA01AA27BB2787A7252F53
S11319F033274427552726A78091990299270196D2
S1131A0068E070E00E940E1A80939902809161024E
S1131A10815080936102882351F080914D0190910F
S1131A204E010E9435031092990210926102809136
S1131A308101FE01E80FF11D808187FF31C0012B78
S1131A4079F169816770E0914D01F0914E01623046
S1131A5019F5A0918D01B0918E01109709F1809133
S1131A604701909148010797D9F4ED019B81838147
S1131A709817B1F487B78F7E87BF908181E08CA7D8
S1131A80E90FF11D8291319688A780818F7789A70C
S1131A9080E00E94710B04C0613011F48BE02AC015
S1131AA00E94D90759C010928901C09A84E00E940B
S1131AB08B0752C08E3309F04FC0C09A8091470102
S1131AC0909148010897C9F4C09889E00E941A03CC
S1131AD0C09A83E00E948B0781E090E090934801D4
S1131AE0809347018FB7F894992723E0209341010D
S1131AF08FBF84E00E9489012FC08091B90288239E
S1131B0049F484E090E090934801809347010E9457
S1131B10B20B22C083E00E948B0783E090E0909395
S1131B204801809347010E947000DC01CB0166E309
S1131B3071E00E94FA19ABE0EA2EF12CE80EF91ECE
S1131B40F0926301E09262010E944403002711278E
S1131B50A80197010E940104DF91CF911F910F9179
S1131B60FF90EF9008951F920F920FB60F921124D9
S1131B702F933F934F935F936F937F938F939F9391
S1131B80AF93BF93EF93FF932FB1E091D801F091FE
S1131B90D901309739F08091AE019091AF01E80FEF
S1131BA0F91F20838091AE019091AF01019690932B
S1131BB0AF018093AE0180E00E946E0140914F011D
S1131BC0509150018091AE019091AF018417950717
S1131BD018F40E9414021CC06091D8017091D901BC
S1131BE08091B3029091B4021092D9011092D8015D
S1131BF01092B4021092B3021092500110924F014D
S1131C001092AF011092AE012FB120E00E940D0C92
S1131C10FF91EF91BF91AF919F918F917F916F91C0
S1131C205F914F913F912F910F900FBE0F901F9096
S1131C301895AF92BF92CF92DF92EF92FF920F93DB
S1131C401F93CF93DF93CDB7DEB7AD970FB6F8945C
S1131C50DEBF0FBECDBF873009F48CC1883098F445
S1131C60833009F40EC1843038F4813009F45EC045
S1131C70823008F0B3C027C0853009F459C18630DA
S1131C8008F071C104C18B3009F4A1C28C3038F45E
S1131C90893009F465C28A3008F085C2A4C18D3048
S1131CA051F08D3008F419C58E3009F462C58F30B7
S1131CB009F0D1C56CC580919A02882309F4CBC57B
S1131CC090E011E033C580918201882361F5209171
S1131CD0090230910A0240910B0250910C02EFB7B5
S1131CE0F894FF276091EF017091F0018091F10168
S1131CF09091F201E0906901F0906A0100916B010A
S1131D0010916C016E0D7F1D801F911FEFBF2093FA
S1131D10090230930A0240930B0250930C02109272
S1131D2082010E94B2040E94C90243C00E94C902F7
S1131D305B016C018FB7F89499271092AD018FBFA6
S1131D405FEFE52E5FEFF52E5FEF052F5FE7152FB1
S1131D5060E0E4EBF1E0808581FF1CC0808191812B
S1131D60A281B381A6019501281B390B4A0B5B0B99
S1131D70DA01C9012481358146815781281B390B39
S1131D804A0B5B0B2E153F05400751071CF47901E4
S1131D908A0161E0399631E0E83DF307E1F6662314
S1131DA009F459C51E141F04100611062CF0C601AF
S1131DB0B5010E94650A4FC5E0920902F0920A0239
S1131DC000930B0210930C0281E080938201A8011E
S1131DD09701C601B5010E94B2043DC50FB7F8943E
S1131DE0112781E00E941C0441E0E42EF12CF092C2
S1131DF04801E09247011092490110926E0110923D
S1131E0083010FBF0FB7F89411270E940E03F092BD
S1131E108001E0927F011092890189B78F7B89BF8D
S1131E2080E488BF8AB780628ABF8AB78F7E8ABF00
S1131E3089B7806489BF0FBF8FB7F894082F112723
S1131E408091420190914301049719F483E00E9428
S1131E501A030FBF0FB7F8941127C09A80E00E94AD
S1131E608B070FBF8FB7F894992722E02093F401D2
S1131E708FBF44EF51E060E070E080E00E94F00228
S1131E80EAC48FB7F89499271092F40171C08FB700
S1131E90F8949927F09041018FBF63E081E00E949C
S1131EA05701882359F10FB7F8941127109248016C
S1131EB01092470187B78F7E87BF87B78F7D87BF13
S1131EC083E00E948B07C09A0FBF0FB7F8941127C5
S1131ED01092800110927F010E940E03C09A89B76C
S1131EE08F7B89BF0FBF1092430110924201DE988D
S1131EF0DD98DE9A83E00E94890107C08FB7F894C9
S1131F00992722E02093F4018FBF0091AB01109137
S1131F10AC010E94A30280919B0290919C02892BA8
S1131F2009F099C48FEF809333014F2DB801F5C3A5
S1131F308FB7F894282F3327122F8091B702882364
S1131F4009F581E08093B7028091420190914301A9
S1131F50049721F481E00E94B00103C086E00E944E
S1131F6089011FBF78C48FB7F89499271092B702DC
S1131F708FBF71C48FB7F894282F33278091440101
S1131F80882311F02FBF67C42FBF80B3992736E091
S1131F90969587953A95E1F7182F11709091A301C2
S1131FA08091A4018917D9F01917C9F484E090E04D
S1131FB090934301809342018FB7F894992721E0CD
S1131FC0209344018FBF60E070E08DE10E941F0800
S1131FD00E94390BC09AC09882E00E948901109334
S1131FE0A40187E06DC08FB7F894992710912C0154
S1131FF08FBF123009F467C0133030F4112359F045
S1132000113009F028C448C0133009F476C01430E4
S113201009F021C4A2C0C0988FB7F894082F1127E3
S113202080914201909143010297A1F583E090E0F1
S1132030909343018093420168E170E08DE10E9436
S11320401F0881E08093A3011092440180B3992773
S113205026E0969587952A95E1F781709070809394
S1132060A40187E00E94890181E00E941A036FE7BE
S113207072E08CE10E941F080E9480080E944608BA
S113208066E57AE287E10E941F086FEF70E885E158
S11320900E941F080FBFDFC3C09886E00E941A0386
S11320A00E9480080E9446080E94390BC09AC0987A
S11320B083E00E941A03C09A81E00E948B0786E0A5
S11320C00E948901C8C3C0988FB7F894082F1127BC
S11320D060E080E00E945701882311F00FBF0AC01E
S11320E00FBF83E50E94080280E00E94080280E09E
S11320F00E940802C09A82E02DC08FB7F8949927F5
S1132100209147018FBF243039F0283041F022302C
S113211001F50E9491089FC30E94B20B9CC3C09812
S113212089E00E941A03C09A83E00E948B078FB74C
S1132130F894992721E030E0309348012093470137
S11321408FBF8FB7F8949927109341018FBF84E014
S1132150B7CF83E00E948B077EC30E94C8067BC36F
S11321600FB7F894112740914F015091500160919D
S1132170D8017091D9018091B3029091B402109268
S1132180D9011092D8011092B4021092B3021092A5
S1132190500110924F011092AF011092AE0120E055
S11321A00E940D0C77CF2FB7F894332780918601C6
S11321B080932F0182E0809346012FBF80912F01ED
S11321C0882309F048C3B89AC09888E079CFA091D1
S11321D04D01B0914E01FC909D012F0D311DF9016F
S11321E08081881F8827881FFD0183A7F9018081CA
S11321F08F77FD0181A721503040F9018081FD01D5
S113220080A7A0914D01B0914E01FD0132818FB79D
S1132210F8949927209184018FBF222309F490C058
S1132220832F9927969587959695879583709070B7
S11322308230910541F5878146812FB7F894332781
S11322406091A1017091A2012FBF9927982F88272F
S11322505527842B952B8617970719F481E090E076
S11322606CC0FD018781268140E050E09927982FBA
S113227088273327822B932B8F5F9F4F11F441E0E4
S113228050E0CA015AC0039709F01EC29E012A5F9A
S11322903F4F49EF51E088E0FA010190AF01F901A5
S11322A001929F018150C1F79E012A5D3F4FAE010B
S11322B04A5F5F4F88E0FA010190AF01F901019292
S11322C09F018150C1F79E01225F3F4FAE014A5DDD
S11322D05F4F88E0FA010190AF01F90101929F017B
S11322E08150C1F79E012A5E3F4FAE01425F5F4FAE
S11322F088E0FA010190AF01F90101929F01815038
S1132300C1F79E01225E3F4FAE014A5E5F4F88E0F7
S1132310FA010190AF01F90101929F018150C1F7C7
S113232048E050E0BE01625E7F4FCD0106960E94F8
S1132330771A892B09F0C8C103C0882309F4C4C1E2
S1132340FCE0FF1508F0C0C1C0904D01D0904E01D3
S1132350F6012281822F9927F6E096958795FA95C2
S1132360E1F7039719F468E070E002C062E070E0FE
S1132370822F992796958795969587958370907067
S1132380039719F488E090E002C082E090E026E030
S113239030E0C20ED31E40E050E020E030E0F60111
S11323A0E80FF91F8AEF9FEFC80ED91E05C081916F
S11323B0480F511D2F5F3F4F26173707C4F3F6010F
S11323C063818FEF80939D028FB7F894782F20E07C
S11323D030E0E6E5F1E0808191818417950731F4DE
S11323E08281861709F436C120939D022F5F3F4FE7
S11323F033962430310579F77FBF90919D023FB722
S1132400F8949F3F21F080914A01891799F4209113
S11324104A01822F9927FC01EE0FFF1FE80FF91FD5
S1132420EA5AFE4F5183408362832F5F23702093C7
S11324304A010CC0892F9927FC01EE0FFF1FE80FFA
S1132440F91FEA5AFE4F518340836283832F9927F1
S11324508FBF0FB7F8941127C6010E94F900FC0141
S113246090810FBFF60183A5882309F429C19F3306
S113247009F026C1878146812FB7F89433276091EC
S11324803001709131012FBF9927982F8827552744
S1132490842B952B8617970761F0878126819927CE
S11324A0982F88273327822B932B8F5F9F4F09F018
S11324B007C1F6018385863009F002C1F8E2FF16F0
S11324C009F0FEC0ACE0AA2EB12CAC0CBD1CF60188
S11324D0878126819927982F88273327822B932B4E
S11324E08F5F9F4F09F040C000912A0110912B018A
S11324F000FF3AC06AED71E0C6010E960E948B1A85
S1132500892B91F5F601818520859927F82FEE27EF
S11325103327E22BF32BF0939001E0938F01075CB8
S11325201E4F71E0F72ED801FC9280913801882368
S1132530D9F4209167023327322F22278091660233
S113254099278062282B392B20936602232F332767
S1132550209367024BE165E672E0CF010E94220AF4
S1132560882311F4F0923801F60187812681992796
S1132570982F88273327822B932B8F5F9F4F09F047
S113258040C000912A0110912B0100FD3AC06EE970
S113259072E0C50102960E948B1A892B91F5F6010F
S11325A0818520859927F82FEE273327E22BF32BFB
S11325B0F0939001E0938F01075C1E4F81E0F82EA9
S11325C0D801FC92809138018823D9F420916702C4
S11325D03327322F22278091660299278062282B85
S11325E0392B20936602232F3327209367024BE174
S11325F065E672E0CF010E94220A882311F4F0926A
S11326003801F601878126819927582F44273327DB
S1132610422B532B80912A0190912B014817590783
S113262041F5FA01E75CFE4F8081882311F1809126
S1132630BC018D7F8093BC01FA01E35CFE4F81E015
S1132640808340FD09C040E157E260E070E00E94F1
S1132650F0020FC07FBF34C00E94C902AB01BC01AD
S1132660E1E0EE2E00E61AEE20E030E082E00E9487
S1132670AA02D5018C91F50121819927982F8827E9
S11326803327822B932B0397D9F48689278999279B
S1132690982F88273327822B932B9093650180935F
S11326A06401808D218D9927982F88273327822BC9
S11326B0932B9093670180936601828D80936801C8
S11326C0D0924E01C0924D018FB7F8949927109281
S11326D089018FBF0E94D907BEC090919501809156
S11326E03301981709F4B7C0909333019923D1F4B7
S11326F000914B0110914C016091A901C8010E9405
S1132700D708482F5527442309F4A5C08FEF809399
S1132710330160914B0170914C01F80183850E9453
S1132720130A99C08FEF8093330195C020919A02C8
S1132730812F8223C1F0E92FFF27EE0FFF1FE05501
S1132740FE4F4081518111821082812F8095282370
S113275020939A02992339F463E0CA010E9418066F
S1132760110F91E0E3CF9F5F983008F074C0110F10
S1132770DDCF80913601E82FFF27EE0FFF1FE055D4
S1132780FE4F6081718141E00E94D30964C00E94C0
S1132790700070930502609304020E9470007093AD
S11327A00702609306020E947000DC01CB016AE01C
S11327B070E00E94FA1990939701809396018330F8
S11327C0910514F48BE00AC08630910514F48CE072
S11327D005C0099714F48DE001C08EE080930802CF
S11327E0DE011196E4E0F2E085E001900D92815063
S11327F0E1F74D812B813C8189819A818093880204
S1132800892F99278093870220938A02232F3327C5
S11328102093890240938B0283E08093720210928A
S11328207102209167023327322F2227809166029A
S113283099278062282B392B20936602232F332774
S1132840209367024BE165E672E080918F019091DD
S113285090010E94220AAD960FB6F894DEBF0FBE17
S1132860CDBFDF91CF911F910F91FF90EF90DF903B
S1132870CF90BF90AF900895809162028F3FB1F0E6
S1132880282F3327F901E159FE4F8081809362029A
S11328908F3F11F48093B8028FEF80832F3F31F084
S11328A0822F0E94190E81E090E0089580E090E06C
S11328B008951F93CF93DF93CDB7DEB7E0970FB69C
S11328C0F894DEBF0FBECDBF1FB7F89440E150E0CF
S11328D06FEF70E08FE691E00E94841A8FEF80938F
S11328E062028093B80281E08EBD88E080BF83E0FD
S11328F083BF8CB59DB54AE72CB53DB5281739077C
S113290008F44150442311F0C901F6CF92B782B7BD
S11329108917E9F32CB53DB592B782B78917E9F366
S11329208CB59DB5821B930B409665E09695879573
S11329306A95E1F7909364028093630213BE83B7B0
S11329408EBD8EB580BF12BE1DBC1CBC8FEF86BF72
S113295086B780937C0080B7992787709070892B05
S1132960D1F7D29AD19AD09ADA9AD99AD89A15BA32
S11329708FEF84BBD498DC981DBC1CBC87B78460E3
S113298087BF8EB5887F84608EBD0E943C148823E7
S1132990E1F780912A0190912B010196AA27BB2788
S11329A08093910190939201A0939301B093940129
S11329B08FEF80938701E6E5F1E08FEF9FEF91833E
S11329C080831282339621E0E236F207C1F70E9437
S11329D070006093030280912A0190912B0101966B
S11329E0AA27BB278093910190939201A09393010E
S11329F0B09394018DE292E090934E0180934D0147
S1132A008E98B89A8C988FEF80939C011092F30162
S1132A101092F4011092F5011092F601B89AD69A28
S1132A20D59A8FB7F89499272091300130913101CC
S1132A308FBF3093A2012093A1010E94CC0429A747
S1132A403AA74BA75CA76DA77EA78FA798ABDE011B
S1132A509196FE01B99688E001900D928150E1F7BC
S1132A60DE015196FE01B19688E001900D928150ED
S1132A70E1F7DE015996FE01719688E001900D920E
S1132A808150E1F7A9EFB1E0FE01799688E0019069
S1132A900D928150E1F780913201992790938B0137
S1132AA080938A018FE18093EE018AE18093010291
S1132AB00E94CC0429A73AA74BA75CA76DA77EA7C1
S1132AC08FA798ABDE019196FE01B99688E001903C
S1132AD00D928150E1F7DE011196FE01B19688E076
S1132AE001900D928150E1F7DE011996FE013196B5
S1132AF088E001900D928150E1F7A9EFB1E0FE0169
S1132B00399688E001900D928150E1F7A9EFB1E088
S1132B10FD0137969C9180818D939083319781E05C
S1132B20EC3FF807B9F781E0809384011092B20278
S1132B3080938C011092F80180B7886080BF8BE08D
S1132B4083BF86EE81BF87B7826087BF0E942F0450
S1132B500E943C148823E1F7812F99278FBF789432
S1132B6080912A0190912B018230910579F0833074
S1132B70910518F40197C1F406C08330910549F01A
S1132B80049791F40BC060E071E005C060E071E06F
S1132B9007C065E171E08AED91E004C065E171E090
S1132BA08EE992E00E94941A0E945E068FB7F89410
S1132BB0482F55274BC087B7992783709070892B6E
S1132BC019F4E5E0F0E013C080B79927877090709E
S1132BD0892BD1F781B792B7891B8C3030F082B73B
S1132BE0853F18F4E3E0F0E002C0E2E0F0E087B7EC
S1132BF0887BC1F480917D008B7FA1F46E9912C013
S1132C008AB190919A00892B887161F48091740043
S1132C1082FD08C0379B03C081E090E005C085E0D9
S1132C2090E002C080E090E025B78E1708F4E82F0A
S1132C30FF27E457FF4FE491237E2062E22BE5BF98
S1132C4078948895F89485B78F7D85BF80916202CA
S1132C508F3F09F4B0CF282F3327F901E159FE4FF4
S1132C608081809362028F3F11F48093B8028FEFCA
S1132C7080832F3F09F49FCF4FBF822F0E94190EEC
S1132C8095CF78941F920F920FB60F9211242F9222
S1132C903F924F925F926F927F928F929F92AF92E8
S1132CA0BF92CF92DF92EF92FF920F931F932F93D5
S1132CB03F934F935F936F937F938F939F93AF93C0
S1132CC0BF93CF93DF93EF93FF93C6B5D7B58FB779
S1132CD0F894282E0E9444039B012C1B3D0B44278F
S1132CE055272B013C01421A530A640A750A809144
S1132CF04701909148018530910521F0069709F02C
S1132D00E0C0BFC086E090E0909348018093470103
S1132D1031E0332E309288011092490180E00E9404
S1132D201C04E0918D01F0918E0141AABB27A72DCF
S1132D30962D852D80ABC301AA27BB2787A7872D96
S1132D409927AA27BB2786A7E0918D01F0918E01D0
S1132D5085A5882309F484C06081655077274F01D5
S1132D60860E971EF4012081E1808281A380992739
S1132D70AA27BB27BA2FA92F982F882733274427A0
S1132D805527522F442733272227FF2400271127B2
S1132D908701FF24EE242E293F29402B512BBB24ED
S1132DA0CC24DD242A293B294C295D29822B932B11
S1132DB0A42BB52B84199509A609B7098383292F58
S1132DC03A2F4B2F552722839D01442755272183D2
S1132DD08B2F9927AA27BB278083C09824E0A401BE
S1132DE080E090E00E94F80AC09AF4012081E1801A
S1132DF08281A3809927AA27BB27BA2FA92F982FAE
S1132E008827332744275527522F4427332722273F
S1132E10FF24002711278701FF24EE242E293F29B0
S1132E20402B512BBB24CC24DD242A293B294C29BB
S1132E305D29822B932BA42BB52B840D951DA61DE8
S1132E40B71D8383292F3A2F4B2F552722839D01AA
S1132E504427552721838B2F9927AA27BB278083B3
S1132E60E0918D01F0918E01818185FF02C0309245
S1132E706E0183E00E948B0787B78F7E87BF84999A
S1132E807AC01092880181E00E941C04E0918D01B7
S1132E90F0918E01818185FF0FC087E090E09093CF
S1132EA04801809347010E94440320E031E040E060
S1132EB050E00E94010403C080E00E94710B849BD7
S1132EC05AC080914901882391F580918801882313
S1132ED071F511E0109388010E941C0480B32091C5
S1132EE06102283098F4E0919902E20FFF27E7701D
S1132EF0F070EE0FFF1FEE0FFF1FE35FFD4F4082E8
S1132F005182628273822F5F209361021093490180
S1132F10D093A801C093A70184992DC0992774E088
S1132F20969587957A95E1F7182F117001C010E0F6
S1132F30809188018130F9F4109288010E941C0468
S1132F40109249011123B9F48091A7019091A8012D
S1132F50C81BD90B2A9778F480916102882319F051
S1132F6081508093610280918D0190918E01009730
S1132F7011F00E9435032FBEFF91EF91DF91CF91A5
S1132F80BF91AF919F918F917F916F915F914F917D
S1132F903F912F911F910F91FF90EF90DF90CF9071
S1132FA0BF90AF909F908F907F906F905F904F9065
S1132FB03F902F900F900FBE0F901F90189578940C
S1132FC01F920F920FB60F9211241F932F933F93CA
S1132FD04F935F936F937F938F939F93AF93BF931D
S1132FE0EF93FF9387B78F7E87BF78941FB7F894CA
S1132FF08091980190919901A0919A01B0919B01BF
S11330000097A105B10509F051C080914701909145
S113301048018530910561F18630910530F48330A3
S1133020910549F0049781F51AC087309105F1F0B4
S1133030089751F514C0869B0FC084E090E09093EC
S11330404801809347010E94440327E030E040E0B8
S113305050E00E94010418C00E94880B15C00E9411
S11330600906882389F40E94B20B0EC080E00AC0CE
S113307089E00E941A0381E00E941C0483E00E94FC
S11330808B0787E00E94710B80914201909143016C
S1133090019771F482E090E09093430180934201A0
S11330A0DE98DE9A80E00E94B00102C00E946103B3
S11330B0812F99278FBFFF91EF91BF91AF919F917E
S11330C08F917F916F915F914F913F912F911F91BC
S11330D00F900FBE0F901F901895ACE2B0E0E3E79D
S11330E0F8E10C94401A222E332E442E552E662ECF
S11330F0772E882E992EFE013196A8E01192AA957A
S1133100E9F729823A824B825C826D827E828F82C9
S11331109886FE013996B8E01192BA95E9F7A98626
S1133120BA86CB86DC86ED86FE860F87188B89816E
S11331309A81AB81BC8189A79AA7ABA7BCA77C0164
S11331408D018FEF9FEFA0E0B0E0E822F9220A237F
S11331501B2389A59AA5ABA5BCA51D014424552410
S113316089859A85AB85BC858DA39EA3AFA3B8A79B
S11331705C016D018FEF9FEFA0E0B0E0A822B922BF
S1133180CA22DB228DA19EA1AFA1B8A53D0188244E
S11331909924C801B701A60195010E94211A69A3C7
S11331A07AA38BA39CA3C801B701A40193010E9435
S11331B0211A7B018C01C201B101A60195010E9473
S11331C0211A5B016C01C201B101A40193010E94A7
S11331D0211A3B014C01EA0CFB1C0C1D1D1D89A18D
S11331E09AA1ABA1BCA19D01442755272E0D3F1DDB
S11331F0401F511F2A153B054C055D0540F480E036
S113320090E0A1E0B0E0680E791E8A1E9B1ECA0100
S1133210AA27BB27860D971DA81DB91D8D8F9E8FCC
S1133220AF8FB8A3A9013327222789A19AA1ABA103
S1133230BCA1A070B070280F391F4A1F5B1F298FD3
S11332403A8F4B8F5C8FA98CBA8CCB8CDC8CED8C39
S1133250FE8C0F8D18A1FE01719698E011929A953B
S1133260E9F7ED8AFE8A0F8B188F2D813E814F81FD
S113327058856DA17EA18FA198A50E94211A3B01BA
S11332804C012D853E854F85588969A57AA58BA566
S11332909CA50E94211A2D893E894F89588D260F9D
S11332A0371F481F591F260D371D481D591D2D8BCB
S11332B03E8B4F8B588F6D887E888F88988C2A2DF3
S11332C03B2D4C2D5D2D662D772D882D992DE2E11A
S11332D0AC960C945C1AA0E1B0E0E1E7F9E10C943F
S11332E0401A222E332E442E552E662E772E882EEB
S11332F0992E002309F466C088E0FE0131961192EC
S11333008A95E9F729833A834B835C836D837E83B3
S11333108F829887E0E2E01B1E16CCF52D813E815A
S11333204F815885602F772767FD7095DA01C901B1
S1133330062E04C0B695A795979587950A94D2F75B
S11333408D879E87AF87B88B04C0220F331F441F1D
S1133350551FEA95D2F789819A81AB81BC8104C05B
S1133360B695A795979587956A95D2F7282B392B0B
S11333704A2B5B2B29873A874B875C8729843A84BD
S11333804B845C846D847E848F8498881BC01D86E6
S11333901E861F86188A2E2F332727FD30953095D9
S11333A021953F4F8D819E81AF81B88504C0B6952C
S11333B0A795979587952A95D2F789879A87AB879A
S11333C0BC87DCCF222D332D442D552D662D772D32
S11333D0882D992DE2E160960C945C1A991B79E092
S11333E004C0991F961708F0961B881F7A95C9F791
S11333F080950895AA1BBB1B51E107C0AA1FBB1FE0
S1133400A617B70710F0A61BB70B881F991F5A956C
S1133410A9F780959095BC01CD01089597FB092EDD
S113342007260AD077FD04D0E5DF06D000201AF481
S1133430709561957F4F0895F6F7909581959F4F0C
S11334400895629FD001739FF001829FE00DF11DEA
S1133450649FE00DF11D929FF00D839FF00D749F0A
S1133460F00D659FF00D9927729FB00DE11DF91FB6
S1133470639FB00DE11DF91FBD01CF011124089513
S11334802F923F924F925F926F927F928F929F9270
S1133490AF92BF92CF92DF92EF92FF920F931F935E
S11334A0CF93DF93CDB7DEB7CA1BDB0B0FB6F8940F
S11334B0DEBF0FBECDBF09942A88398848885F844F
S11334C06E847D848C849B84AA84B984C884DF80C0
S11334D0EE80FD800C811B81AA81B981CE0FD11DA4
S11334E00FB6F894DEBF0FBECDBFED010895FB010A
S11334F0DC0104C08D910190801921F441505040A9
S1133500C8F7881B990B0895DC0101C06D934150E5
S11335105040E0F70895FB01DC018D910190801982
S11335200110D9F3990B0895FB01DC0101900D9270
S10B35300020E1F70895FFCF2C
S1133538346E6368646A736B636E66626768727517
S1133548656A666E00386E6368646465346B636EBE
S113355866626872393038666E000100FFFFFFFF4B
S10B3568010022FFFFFF010036
S9030000FC
